{
  "_format": "hh-sol-artifact-1",
  "contractName": "FarmerAuction",
  "sourceName": "contracts/FarmerAuction.sol",
  "abi": [
    {
      "inputs": [],
      "stateMutability": "nonpayable",
      "type": "constructor"
    },
    {
      "anonymous": false,
      "inputs": [
        {
          "indexed": true,
          "internalType": "uint256",
          "name": "auctionId",
          "type": "uint256"
        },
        {
          "indexed": true,
          "internalType": "address",
          "name": "farmer",
          "type": "address"
        },
        {
          "indexed": false,
          "internalType": "string",
          "name": "cropName",
          "type": "string"
        },
        {
          "indexed": false,
          "internalType": "uint256",
          "name": "quantity",
          "type": "uint256"
        },
        {
          "indexed": false,
          "internalType": "uint256",
          "name": "minimumBid",
          "type": "uint256"
        },
        {
          "indexed": false,
          "internalType": "uint256",
          "name": "endTime",
          "type": "uint256"
        }
      ],
      "name": "AuctionCreated",
      "type": "event"
    },
    {
      "anonymous": false,
      "inputs": [
        {
          "indexed": true,
          "internalType": "uint256",
          "name": "auctionId",
          "type": "uint256"
        },
        {
          "indexed": true,
          "internalType": "address",
          "name": "winner",
          "type": "address"
        },
        {
          "indexed": false,
          "internalType": "uint256",
          "name": "winningBid",
          "type": "uint256"
        }
      ],
      "name": "AuctionEnded",
      "type": "event"
    },
    {
      "anonymous": false,
      "inputs": [
        {
          "indexed": true,
          "internalType": "uint256",
          "name": "auctionId",
          "type": "uint256"
        },
        {
          "indexed": true,
          "internalType": "address",
          "name": "bidder",
          "type": "address"
        },
        {
          "indexed": false,
          "internalType": "uint256",
          "name": "amount",
          "type": "uint256"
        },
        {
          "indexed": false,
          "internalType": "uint256",
          "name": "timestamp",
          "type": "uint256"
        }
      ],
      "name": "BidPlaced",
      "type": "event"
    },
    {
      "anonymous": false,
      "inputs": [
        {
          "indexed": true,
          "internalType": "address",
          "name": "buyer",
          "type": "address"
        },
        {
          "indexed": false,
          "internalType": "string",
          "name": "name",
          "type": "string"
        }
      ],
      "name": "BuyerRegistered",
      "type": "event"
    },
    {
      "anonymous": false,
      "inputs": [
        {
          "indexed": true,
          "internalType": "address",
          "name": "farmer",
          "type": "address"
        },
        {
          "indexed": false,
          "internalType": "string",
          "name": "name",
          "type": "string"
        }
      ],
      "name": "FarmerRegistered",
      "type": "event"
    },
    {
      "anonymous": false,
      "inputs": [
        {
          "indexed": true,
          "internalType": "address",
          "name": "previousOwner",
          "type": "address"
        },
        {
          "indexed": true,
          "internalType": "address",
          "name": "newOwner",
          "type": "address"
        }
      ],
      "name": "OwnershipTransferred",
      "type": "event"
    },
    {
      "anonymous": false,
      "inputs": [
        {
          "indexed": true,
          "internalType": "uint256",
          "name": "auctionId",
          "type": "uint256"
        },
        {
          "indexed": true,
          "internalType": "address",
          "name": "farmer",
          "type": "address"
        },
        {
          "indexed": true,
          "internalType": "address",
          "name": "buyer",
          "type": "address"
        },
        {
          "indexed": false,
          "internalType": "uint256",
          "name": "amount",
          "type": "uint256"
        }
      ],
      "name": "PaymentReleased",
      "type": "event"
    },
    {
      "inputs": [
        {
          "internalType": "uint256",
          "name": "",
          "type": "uint256"
        },
        {
          "internalType": "uint256",
          "name": "",
          "type": "uint256"
        }
      ],
      "name": "auctionBids",
      "outputs": [
        {
          "internalType": "address",
          "name": "bidder",
          "type": "address"
        },
        {
          "internalType": "uint256",
          "name": "amount",
          "type": "uint256"
        },
        {
          "internalType": "uint256",
          "name": "timestamp",
          "type": "uint256"
        }
      ],
      "stateMutability": "view",
      "type": "function"
    },
    {
      "inputs": [],
      "name": "auctionCounter",
      "outputs": [
        {
          "internalType": "uint256",
          "name": "",
          "type": "uint256"
        }
      ],
      "stateMutability": "view",
      "type": "function"
    },
    {
      "inputs": [
        {
          "internalType": "uint256",
          "name": "",
          "type": "uint256"
        }
      ],
      "name": "auctions",
      "outputs": [
        {
          "internalType": "uint256",
          "name": "id",
          "type": "uint256"
        },
        {
          "internalType": "address",
          "name": "farmer",
          "type": "address"
        },
        {
          "internalType": "string",
          "name": "cropName",
          "type": "string"
        },
        {
          "internalType": "uint256",
          "name": "quantity",
          "type": "uint256"
        },
        {
          "internalType": "string",
          "name": "unit",
          "type": "string"
        },
        {
          "internalType": "uint256",
          "name": "minimumBid",
          "type": "uint256"
        },
        {
          "internalType": "uint256",
          "name": "startTime",
          "type": "uint256"
        },
        {
          "internalType": "uint256",
          "name": "endTime",
          "type": "uint256"
        },
        {
          "internalType": "uint256",
          "name": "highestBid",
          "type": "uint256"
        },
        {
          "internalType": "address",
          "name": "highestBidder",
          "type": "address"
        },
        {
          "internalType": "bool",
          "name": "ended",
          "type": "bool"
        },
        {
          "internalType": "bool",
          "name": "paid",
          "type": "bool"
        },
        {
          "internalType": "string",
          "name": "ipfsHash",
          "type": "string"
        }
      ],
      "stateMutability": "view",
      "type": "function"
    },
    {
      "inputs": [
        {
          "internalType": "address",
          "name": "",
          "type": "address"
        },
        {
          "internalType": "uint256",
          "name": "",
          "type": "uint256"
        }
      ],
      "name": "buyerBids",
      "outputs": [
        {
          "internalType": "uint256",
          "name": "",
          "type": "uint256"
        }
      ],
      "stateMutability": "view",
      "type": "function"
    },
    {
      "inputs": [
        {
          "internalType": "address",
          "name": "",
          "type": "address"
        }
      ],
      "name": "buyers",
      "outputs": [
        {
          "internalType": "address",
          "name": "wallet",
          "type": "address"
        },
        {
          "internalType": "string",
          "name": "name",
          "type": "string"
        },
        {
          "internalType": "string",
          "name": "businessName",
          "type": "string"
        },
        {
          "internalType": "uint256",
          "name": "totalBids",
          "type": "uint256"
        },
        {
          "internalType": "uint256",
          "name": "totalSpent",
          "type": "uint256"
        }
      ],
      "stateMutability": "view",
      "type": "function"
    },
    {
      "inputs": [
        {
          "internalType": "string",
          "name": "_cropName",
          "type": "string"
        },
        {
          "internalType": "uint256",
          "name": "_quantity",
          "type": "uint256"
        },
        {
          "internalType": "string",
          "name": "_unit",
          "type": "string"
        },
        {
          "internalType": "uint256",
          "name": "_minimumBid",
          "type": "uint256"
        },
        {
          "internalType": "uint256",
          "name": "_duration",
          "type": "uint256"
        },
        {
          "internalType": "string",
          "name": "_ipfsHash",
          "type": "string"
        }
      ],
      "name": "createAuction",
      "outputs": [
        {
          "internalType": "uint256",
          "name": "",
          "type": "uint256"
        }
      ],
      "stateMutability": "nonpayable",
      "type": "function"
    },
    {
      "inputs": [],
      "name": "emergencyWithdraw",
      "outputs": [],
      "stateMutability": "nonpayable",
      "type": "function"
    },
    {
      "inputs": [
        {
          "internalType": "uint256",
          "name": "_auctionId",
          "type": "uint256"
        }
      ],
      "name": "endAuction",
      "outputs": [],
      "stateMutability": "nonpayable",
      "type": "function"
    },
    {
      "inputs": [
        {
          "internalType": "address",
          "name": "",
          "type": "address"
        },
        {
          "internalType": "uint256",
          "name": "",
          "type": "uint256"
        }
      ],
      "name": "farmerAuctions",
      "outputs": [
        {
          "internalType": "uint256",
          "name": "",
          "type": "uint256"
        }
      ],
      "stateMutability": "view",
      "type": "function"
    },
    {
      "inputs": [
        {
          "internalType": "address",
          "name": "",
          "type": "address"
        }
      ],
      "name": "farmers",
      "outputs": [
        {
          "internalType": "address",
          "name": "wallet",
          "type": "address"
        },
        {
          "internalType": "string",
          "name": "name",
          "type": "string"
        },
        {
          "internalType": "string",
          "name": "location",
          "type": "string"
        },
        {
          "internalType": "bool",
          "name": "verified",
          "type": "bool"
        },
        {
          "internalType": "uint256",
          "name": "totalAuctions",
          "type": "uint256"
        },
        {
          "internalType": "uint256",
          "name": "totalRevenue",
          "type": "uint256"
        }
      ],
      "stateMutability": "view",
      "type": "function"
    },
    {
      "inputs": [],
      "name": "getActiveAuctions",
      "outputs": [
        {
          "internalType": "uint256[]",
          "name": "",
          "type": "uint256[]"
        }
      ],
      "stateMutability": "view",
      "type": "function"
    },
    {
      "inputs": [
        {
          "internalType": "uint256",
          "name": "_auctionId",
          "type": "uint256"
        }
      ],
      "name": "getAuction",
      "outputs": [
        {
          "components": [
            {
              "internalType": "uint256",
              "name": "id",
              "type": "uint256"
            },
            {
              "internalType": "address",
              "name": "farmer",
              "type": "address"
            },
            {
              "internalType": "string",
              "name": "cropName",
              "type": "string"
            },
            {
              "internalType": "uint256",
              "name": "quantity",
              "type": "uint256"
            },
            {
              "internalType": "string",
              "name": "unit",
              "type": "string"
            },
            {
              "internalType": "uint256",
              "name": "minimumBid",
              "type": "uint256"
            },
            {
              "internalType": "uint256",
              "name": "startTime",
              "type": "uint256"
            },
            {
              "internalType": "uint256",
              "name": "endTime",
              "type": "uint256"
            },
            {
              "internalType": "uint256",
              "name": "highestBid",
              "type": "uint256"
            },
            {
              "internalType": "address",
              "name": "highestBidder",
              "type": "address"
            },
            {
              "internalType": "bool",
              "name": "ended",
              "type": "bool"
            },
            {
              "internalType": "bool",
              "name": "paid",
              "type": "bool"
            },
            {
              "internalType": "string",
              "name": "ipfsHash",
              "type": "string"
            }
          ],
          "internalType": "struct FarmerAuction.Auction",
          "name": "",
          "type": "tuple"
        }
      ],
      "stateMutability": "view",
      "type": "function"
    },
    {
      "inputs": [
        {
          "internalType": "uint256",
          "name": "_auctionId",
          "type": "uint256"
        }
      ],
      "name": "getAuctionBids",
      "outputs": [
        {
          "components": [
            {
              "internalType": "address",
              "name": "bidder",
              "type": "address"
            },
            {
              "internalType": "uint256",
              "name": "amount",
              "type": "uint256"
            },
            {
              "internalType": "uint256",
              "name": "timestamp",
              "type": "uint256"
            }
          ],
          "internalType": "struct FarmerAuction.Bid[]",
          "name": "",
          "type": "tuple[]"
        }
      ],
      "stateMutability": "view",
      "type": "function"
    },
    {
      "inputs": [
        {
          "internalType": "address",
          "name": "_buyer",
          "type": "address"
        }
      ],
      "name": "getBuyerBids",
      "outputs": [
        {
          "internalType": "uint256[]",
          "name": "",
          "type": "uint256[]"
        }
      ],
      "stateMutability": "view",
      "type": "function"
    },
    {
      "inputs": [
        {
          "internalType": "address",
          "name": "_farmer",
          "type": "address"
        }
      ],
      "name": "getFarmerAuctions",
      "outputs": [
        {
          "internalType": "uint256[]",
          "name": "",
          "type": "uint256[]"
        }
      ],
      "stateMutability": "view",
      "type": "function"
    },
    {
      "inputs": [],
      "name": "owner",
      "outputs": [
        {
          "internalType": "address",
          "name": "",
          "type": "address"
        }
      ],
      "stateMutability": "view",
      "type": "function"
    },
    {
      "inputs": [
        {
          "internalType": "uint256",
          "name": "_auctionId",
          "type": "uint256"
        }
      ],
      "name": "placeBid",
      "outputs": [],
      "stateMutability": "payable",
      "type": "function"
    },
    {
      "inputs": [],
      "name": "platformFee",
      "outputs": [
        {
          "internalType": "uint256",
          "name": "",
          "type": "uint256"
        }
      ],
      "stateMutability": "view",
      "type": "function"
    },
    {
      "inputs": [
        {
          "internalType": "string",
          "name": "_name",
          "type": "string"
        },
        {
          "internalType": "string",
          "name": "_businessName",
          "type": "string"
        }
      ],
      "name": "registerBuyer",
      "outputs": [],
      "stateMutability": "nonpayable",
      "type": "function"
    },
    {
      "inputs": [
        {
          "internalType": "string",
          "name": "_name",
          "type": "string"
        },
        {
          "internalType": "string",
          "name": "_location",
          "type": "string"
        }
      ],
      "name": "registerFarmer",
      "outputs": [],
      "stateMutability": "nonpayable",
      "type": "function"
    },
    {
      "inputs": [
        {
          "internalType": "uint256",
          "name": "_auctionId",
          "type": "uint256"
        }
      ],
      "name": "releaseFunds",
      "outputs": [],
      "stateMutability": "nonpayable",
      "type": "function"
    },
    {
      "inputs": [],
      "name": "renounceOwnership",
      "outputs": [],
      "stateMutability": "nonpayable",
      "type": "function"
    },
    {
      "inputs": [
        {
          "internalType": "uint256",
          "name": "_fee",
          "type": "uint256"
        }
      ],
      "name": "setPlatformFee",
      "outputs": [],
      "stateMutability": "nonpayable",
      "type": "function"
    },
    {
      "inputs": [
        {
          "internalType": "address",
          "name": "newOwner",
          "type": "address"
        }
      ],
      "name": "transferOwnership",
      "outputs": [],
      "stateMutability": "nonpayable",
      "type": "function"
    },
    {
      "inputs": [
        {
          "internalType": "address",
          "name": "_farmer",
          "type": "address"
        }
      ],
      "name": "verifyFarmer",
      "outputs": [],
      "stateMutability": "nonpayable",
      "type": "function"
    }
  ],
  "bytecode": "0x608060405260fa60035534801561001557600080fd5b50600160005561002433610029565b61007b565b600180546001600160a01b038381166001600160a01b0319831681179093556040519116919082907f8be0079c531659141344cd1fd0a4f28419497f9722a3daafe3b4186f6b6457e090600090a35050565b6129fe8061008a6000396000f3fe6080604052600436106101665760003560e01c806378bd7935116100d1578063b03023491161008a578063b9a2de3a11610064578063b9a2de3a14610484578063cf44b5d5146104a4578063db2e21bc146104b9578063f2fde38b146104ce57600080fd5b8063b030234914610424578063b618387a14610444578063b8c62d321461046457600080fd5b806378bd7935146103485780638da5cb5b1461037557806397a993aa1461039d57806399086979146103ce5780639979ef45146103fb578063a7e766441461040e57600080fd5b806340fd8fd51161012357806340fd8fd5146102485780634d68282f14610268578063571a26a0146102885780635f93de49146102c157806370b4768e14610306578063715018a61461033357600080fd5b806312e8e2c31461016b578063235db9f51461018d57806326232a2e146101ad578063314596b2146101d657806331ecd595146101f6578063401b216814610216575b600080fd5b34801561017757600080fd5b5061018b6101863660046121d5565b6104ee565b005b34801561019957600080fd5b5061018b6101a836600461220a565b61054a565b3480156101b957600080fd5b506101c360035481565b6040519081526020015b60405180910390f35b3480156101e257600080fd5b5061018b6101f13660046122cf565b6105e6565b34801561020257600080fd5b506101c3610211366004612333565b61071e565b34801561022257600080fd5b5061023661023136600461220a565b61074f565b6040516101cd969594939291906123a3565b34801561025457600080fd5b506101c36102633660046123f8565b6108a4565b34801561027457600080fd5b5061018b6102833660046121d5565b610c84565b34801561029457600080fd5b506102a86102a33660046121d5565b610faf565b6040516101cd9d9c9b9a9998979695949392919061249c565b3480156102cd57600080fd5b506102e16102dc36600461254c565b6111ca565b604080516001600160a01b0390941684526020840192909252908201526060016101cd565b34801561031257600080fd5b506103266103213660046121d5565b611216565b6040516101cd919061256e565b34801561033f57600080fd5b5061018b6112d2565b34801561035457600080fd5b506103686103633660046121d5565b6112e6565b6040516101cd91906125d0565b34801561038157600080fd5b506001546040516001600160a01b0390911681526020016101cd565b3480156103a957600080fd5b506103bd6103b836600461220a565b6115fc565b6040516101cd9594939291906126db565b3480156103da57600080fd5b506103ee6103e936600461220a565b611745565b6040516101cd9190612726565b61018b6104093660046121d5565b6117b1565b34801561041a57600080fd5b506101c360025481565b34801561043057600080fd5b506101c361043f366004612333565b611b9e565b34801561045057600080fd5b5061018b61045f3660046122cf565b611bba565b34801561047057600080fd5b506103ee61047f36600461220a565b611cc7565b34801561049057600080fd5b5061018b61049f3660046121d5565b611d31565b3480156104b057600080fd5b506103ee611e9d565b3480156104c557600080fd5b5061018b612016565b3480156104da57600080fd5b5061018b6104e936600461220a565b61205a565b6104f66120d0565b6103e88111156105455760405162461bcd60e51b81526020600482015260156024820152744665652063616e6e6f74206578636565642031302560581b60448201526064015b60405180910390fd5b600355565b6105526120d0565b6001600160a01b038116600090815260066020526040812060010180546105789061276a565b9050116105bf5760405162461bcd60e51b815260206004820152601560248201527411985c9b595c881b9bdd081c9959da5cdd195c9959605a1b604482015260640161053c565b6001600160a01b03166000908152600660205260409020600301805460ff19166001179055565b600082511161062e5760405162461bcd60e51b81526020600482015260146024820152734e616d652063616e6e6f7420626520656d70747960601b604482015260640161053c565b6040805160c0810182523380825260208083018681528385018690526000606085018190526080850181905260a085018190529283526006909152929020815181546001600160a01b0319166001600160a01b039091161781559151909190600182019061069c90826127ec565b50604082015160028201906106b190826127ec565b50606082015160038201805460ff19169115159190911790556080820151600482015560a09091015160059091015560405133907f42558426a946ab6e527d7f548e7bd3e34c2a7ddde555007464cdfbb5f58665f8906107129085906128ac565b60405180910390a25050565b6009602052816000526040600020818154811061073a57600080fd5b90600052602060002001600091509150505481565b600660205260009081526040902080546001820180546001600160a01b03909216929161077b9061276a565b80601f01602080910402602001604051908101604052809291908181526020018280546107a79061276a565b80156107f45780601f106107c9576101008083540402835291602001916107f4565b820191906000526020600020905b8154815290600101906020018083116107d757829003601f168201915b5050505050908060020180546108099061276a565b80601f01602080910402602001604051908101604052809291908181526020018280546108359061276a565b80156108825780601f1061085757610100808354040283529160200191610882565b820191906000526020600020905b81548152906001019060200180831161086557829003601f168201915b5050505060038301546004840154600590940154929360ff9091169290915086565b33600090815260066020526040812060010180548291906108c49061276a565b9050116109135760405162461bcd60e51b815260206004820152601760248201527f4e6f7420612072656769737465726564206661726d6572000000000000000000604482015260640161053c565b60008751116109645760405162461bcd60e51b815260206004820152601960248201527f43726f70206e616d652063616e6e6f7420626520656d70747900000000000000604482015260640161053c565b600086116109b45760405162461bcd60e51b815260206004820152601f60248201527f5175616e74697479206d7573742062652067726561746572207468616e203000604482015260640161053c565b60008411610a0f5760405162461bcd60e51b815260206004820152602260248201527f4d696e696d756d20626964206d7573742062652067726561746572207468616e604482015261020360f41b606482015260840161053c565b60008311610a5f5760405162461bcd60e51b815260206004820152601f60248201527f4475726174696f6e206d7573742062652067726561746572207468616e203000604482015260640161053c565b60028054906000610a6f836128d5565b919050555060006002549050604051806101a00160405280828152602001336001600160a01b031681526020018981526020018881526020018781526020018681526020014281526020018542610ac691906128ee565b8152600060208083018290526040808401839052606084018390526080840183905260a0909301879052848252600481529082902083518155908301516001820180546001600160a01b0319166001600160a01b03909216919091179055908201516002820190610b3790826127ec565b506060820151600382015560808201516004820190610b5690826127ec565b5060a0820151600582015560c0820151600682015560e0820151600782015561010082015160088201556101208201516009820180546101408501516101608601511515600160a81b0260ff60a81b19911515600160a01b026001600160a81b03199093166001600160a01b03909516949094179190911716919091179055610180820151600a820190610bea90826127ec565b5050336000818152600860209081526040808320805460018101825590845282842001869055928252600690529081206004018054925090610c2b836128d5565b90915550339050817fd0d08457c17900d13f32c385b163851a08861cabc596e79a91258a18a526d6fd8a8a89610c618a426128ee565b604051610c719493929190612907565b60405180910390a3979650505050505050565b80600081118015610c9757506002548111155b610cb35760405162461bcd60e51b815260040161053c90612936565b610cbb61212a565b60008281526004602052604090206009810154600160a01b900460ff16610d245760405162461bcd60e51b815260206004820152601b60248201527f41756374696f6e206d75737420626520656e6465642066697273740000000000604482015260640161053c565b6009810154600160a81b900460ff1615610d795760405162461bcd60e51b8152602060048201526016602482015275119d5b991cc8185b1c9958591e481c995b19585cd95960521b604482015260640161053c565b60018101546001600160a01b0316331480610da0575060098101546001600160a01b031633145b610e045760405162461bcd60e51b815260206004820152602f60248201527f4f6e6c79206661726d6572206f722077696e6e696e672062696464657220636160448201526e6e2072656c656173652066756e647360881b606482015260840161053c565b60098101546001600160a01b031615610fa05760098101805460ff60a81b1916600160a81b179055600354600882015460009161271091610e459190612966565b610e4f919061297d565b90506000818360080154610e63919061299f565b60018401546040519192506001600160a01b03169082156108fc029083906000818181858888f19350505050158015610ea0573d6000803e3d6000fd5b506001546040516001600160a01b039091169083156108fc029084906000818181858888f19350505050158015610edb573d6000803e3d6000fd5b5060018301546001600160a01b031660009081526006602052604081206005018054839290610f0b9084906128ee565b9091555050600883015460098401546001600160a01b031660009081526007602052604081206004018054909190610f449084906128ee565b90915550506009830154600184015460088501546040519081526001600160a01b03928316929091169087907f23a1f1d698899279655350f84344b87245426099e1c060807bd35275582d2d0e9060200160405180910390a450505b50610fab6001600055565b5050565b60046020526000908152604090208054600182015460028301805492936001600160a01b0390921692610fe19061276a565b80601f016020809104026020016040519081016040528092919081815260200182805461100d9061276a565b801561105a5780601f1061102f5761010080835404028352916020019161105a565b820191906000526020600020905b81548152906001019060200180831161103d57829003601f168201915b5050505050908060030154908060040180546110759061276a565b80601f01602080910402602001604051908101604052809291908181526020018280546110a19061276a565b80156110ee5780601f106110c3576101008083540402835291602001916110ee565b820191906000526020600020905b8154815290600101906020018083116110d157829003601f168201915b50505060058401546006850154600786015460088701546009880154600a890180549899959894975092955090936001600160a01b0382169360ff600160a01b8404811694600160a81b9094041692906111479061276a565b80601f01602080910402602001604051908101604052809291908181526020018280546111739061276a565b80156111c05780601f10611195576101008083540402835291602001916111c0565b820191906000526020600020905b8154815290600101906020018083116111a357829003601f168201915b505050505090508d565b600560205281600052604060002081815481106111e657600080fd5b60009182526020909120600390910201805460018201546002909201546001600160a01b03909116935090915083565b60608160008111801561122b57506002548111155b6112475760405162461bcd60e51b815260040161053c90612936565b600083815260056020908152604080832080548251818502810185019093528083529193909284015b828210156112c5576000848152602090819020604080516060810182526003860290920180546001600160a01b0316835260018082015484860152600290910154918301919091529083529092019101611270565b5050505091505b50919050565b6112da6120d0565b6112e46000612183565b565b611367604051806101a001604052806000815260200160006001600160a01b031681526020016060815260200160008152602001606081526020016000815260200160008152602001600081526020016000815260200160006001600160a01b03168152602001600015158152602001600015158152602001606081525090565b8160008111801561137a57506002548111155b6113965760405162461bcd60e51b815260040161053c90612936565b60008381526004602090815260409182902082516101a0810184528154815260018201546001600160a01b03169281019290925260028101805492939192918401916113e19061276a565b80601f016020809104026020016040519081016040528092919081815260200182805461140d9061276a565b801561145a5780601f1061142f5761010080835404028352916020019161145a565b820191906000526020600020905b81548152906001019060200180831161143d57829003601f168201915b505050505081526020016003820154815260200160048201805461147d9061276a565b80601f01602080910402602001604051908101604052809291908181526020018280546114a99061276a565b80156114f65780601f106114cb576101008083540402835291602001916114f6565b820191906000526020600020905b8154815290600101906020018083116114d957829003601f168201915b50505091835250506005820154602082015260068201546040820152600782015460608201526008820154608082015260098201546001600160a01b03811660a083015260ff600160a01b82048116151560c0840152600160a81b90910416151560e0820152600a82018054610100909201916115729061276a565b80601f016020809104026020016040519081016040528092919081815260200182805461159e9061276a565b80156115eb5780601f106115c0576101008083540402835291602001916115eb565b820191906000526020600020905b8154815290600101906020018083116115ce57829003601f168201915b505050505081525050915050919050565b600760205260009081526040902080546001820180546001600160a01b0390921692916116289061276a565b80601f01602080910402602001604051908101604052809291908181526020018280546116549061276a565b80156116a15780601f10611676576101008083540402835291602001916116a1565b820191906000526020600020905b81548152906001019060200180831161168457829003601f168201915b5050505050908060020180546116b69061276a565b80601f01602080910402602001604051908101604052809291908181526020018280546116e29061276a565b801561172f5780601f106117045761010080835404028352916020019161172f565b820191906000526020600020905b81548152906001019060200180831161171257829003601f168201915b5050505050908060030154908060040154905085565b6001600160a01b0381166000908152600960209081526040918290208054835181840281018401909452808452606093928301828280156117a557602002820191906000526020600020905b815481526020019060010190808311611791575b50505050509050919050565b33600090815260076020526040812060010180546117ce9061276a565b9050116118165760405162461bcd60e51b81526020600482015260166024820152752737ba1030903932b3b4b9ba32b932b210313abcb2b960511b604482015260640161053c565b8060008111801561182957506002548111155b6118455760405162461bcd60e51b815260040161053c90612936565b6000828152600460205260409020600701548290421061189b5760405162461bcd60e51b8152602060048201526011602482015270105d58dd1a5bdb881a185cc8195b991959607a1b604482015260640161053c565b600081815260046020526040902060090154600160a01b900460ff16156118fc5760405162461bcd60e51b8152602060048201526015602482015274105d58dd1a5bdb88185b1c9958591e48195b991959605a1b604482015260640161053c565b61190461212a565b600083815260046020526040902060018101546001600160a01b0316330361197f5760405162461bcd60e51b815260206004820152602860248201527f4661726d6572732063616e6e6f7420626964206f6e207468656972206f776e2060448201526761756374696f6e7360c01b606482015260840161053c565b806008015434116119e65760405162461bcd60e51b815260206004820152602b60248201527f426964206d75737420626520686967686572207468616e2063757272656e742060448201526a1a1a59da195cdd08189a5960aa1b606482015260840161053c565b8060050154341015611a3a5760405162461bcd60e51b815260206004820181905260248201527f426964206d757374206265206174206c65617374206d696e696d756d20626964604482015260640161053c565b60098101546001600160a01b031615611a8f57600981015460088201546040516001600160a01b039092169181156108fc0291906000818181858888f19350505050158015611a8d573d6000803e3d6000fd5b505b346008820181905560098083018054336001600160a01b0319918216811790925560008881526005602090815260408083208151606081018352868152808401988952428184019081528254600181810185559387528587209251600391820290930180549098166001600160a01b03909316929092178755985186830155975160029095019490945584835294815284822080549384018155825280822090920189905591825260079052908120909101805491611b4d836128d5565b909155505060408051348152426020820152339186917f51db8e23b3f4479b162fd48823b8402895442b8f6cfd94f66239391881ec7b6f910160405180910390a350611b996001600055565b505050565b6008602052816000526040600020818154811061073a57600080fd5b6000825111611c025760405162461bcd60e51b81526020600482015260146024820152734e616d652063616e6e6f7420626520656d70747960601b604482015260640161053c565b6040805160a081018252338082526020808301868152838501869052600060608501819052608085018190529283526007909152929020815181546001600160a01b0319166001600160a01b0390911617815591519091906001820190611c6990826127ec565b5060408201516002820190611c7e90826127ec565b506060820151600382015560809091015160049091015560405133907f215504f5b2df3ff33ff84a1bc2f02a35e00424b7dee948d486e00e1dcd29dd5b906107129085906128ac565b6001600160a01b0381166000908152600860209081526040918290208054835181840281018401909452808452606093928301828280156117a557602002820191906000526020600020908154815260200190600101908083116117915750505050509050919050565b80600081118015611d4457506002548111155b611d605760405162461bcd60e51b815260040161053c90612936565b611d6861212a565b6000828152600460205260409020600781015442101580611d95575060018101546001600160a01b031633145b611de15760405162461bcd60e51b815260206004820152601b60248201527f41756374696f6e2063616e6e6f7420626520656e646564207965740000000000604482015260640161053c565b6009810154600160a01b900460ff1615611e355760405162461bcd60e51b8152602060048201526015602482015274105d58dd1a5bdb88185b1c9958591e48195b991959605a1b604482015260640161053c565b600981018054600160a01b60ff60a01b1982161790915560088201546040519081526001600160a01b039091169084907fd2aa34a4fdbbc6dff6a3e56f46e0f3ae2a31d7785ff3487aa5c95c642acea5019060200160405180910390a350610fab6001600055565b6060600060025467ffffffffffffffff811115611ebc57611ebc61222c565b604051908082528060200260200182016040528015611ee5578160200160208202803683370190505b509050600060015b6002548111611f7257600081815260046020526040902060090154600160a01b900460ff16158015611f2f575060008181526004602052604090206007015442105b15611f605780838381518110611f4757611f476129b2565b602090810291909101015281611f5c816128d5565b9250505b80611f6a816128d5565b915050611eed565b5060008167ffffffffffffffff811115611f8e57611f8e61222c565b604051908082528060200260200182016040528015611fb7578160200160208202803683370190505b50905060005b8281101561200e57838181518110611fd757611fd76129b2565b6020026020010151828281518110611ff157611ff16129b2565b602090810291909101015280612006816128d5565b915050611fbd565b509392505050565b61201e6120d0565b6001546040516001600160a01b03909116904780156108fc02916000818181858888f19350505050158015612057573d6000803e3d6000fd5b50565b6120626120d0565b6001600160a01b0381166120c75760405162461bcd60e51b815260206004820152602660248201527f4f776e61626c653a206e6577206f776e657220697320746865207a65726f206160448201526564647265737360d01b606482015260840161053c565b61205781612183565b6001546001600160a01b031633146112e45760405162461bcd60e51b815260206004820181905260248201527f4f776e61626c653a2063616c6c6572206973206e6f7420746865206f776e6572604482015260640161053c565b60026000540361217c5760405162461bcd60e51b815260206004820152601f60248201527f5265656e7472616e637947756172643a207265656e7472616e742063616c6c00604482015260640161053c565b6002600055565b600180546001600160a01b038381166001600160a01b0319831681179093556040519116919082907f8be0079c531659141344cd1fd0a4f28419497f9722a3daafe3b4186f6b6457e090600090a35050565b6000602082840312156121e757600080fd5b5035919050565b80356001600160a01b038116811461220557600080fd5b919050565b60006020828403121561221c57600080fd5b612225826121ee565b9392505050565b634e487b7160e01b600052604160045260246000fd5b600082601f83011261225357600080fd5b813567ffffffffffffffff8082111561226e5761226e61222c565b604051601f8301601f19908116603f011681019082821181831017156122965761229661222c565b816040528381528660208588010111156122af57600080fd5b836020870160208301376000602085830101528094505050505092915050565b600080604083850312156122e257600080fd5b823567ffffffffffffffff808211156122fa57600080fd5b61230686838701612242565b9350602085013591508082111561231c57600080fd5b5061232985828601612242565b9150509250929050565b6000806040838503121561234657600080fd5b61234f836121ee565b946020939093013593505050565b6000815180845260005b8181101561238357602081850181015186830182015201612367565b506000602082860101526020601f19601f83011685010191505092915050565b6001600160a01b038716815260c0602082018190526000906123c79083018861235d565b82810360408401526123d9818861235d565b95151560608401525050608081019290925260a0909101529392505050565b60008060008060008060c0878903121561241157600080fd5b863567ffffffffffffffff8082111561242957600080fd5b6124358a838b01612242565b975060208901359650604089013591508082111561245257600080fd5b61245e8a838b01612242565b9550606089013594506080890135935060a089013591508082111561248257600080fd5b5061248f89828a01612242565b9150509295509295509295565b8d81526001600160a01b038d1660208201526101a0604082018190526000906124c78382018f61235d565b90508c606084015282810360808401526124e1818d61235d565b90508a60a08401528960c08401528860e0840152876101008401526125126101208401886001600160a01b03169052565b851515610140840152841515610160840152828103610180840152612537818561235d565b9150509e9d5050505050505050505050505050565b6000806040838503121561255f57600080fd5b50508035926020909101359150565b602080825282518282018190526000919060409081850190868401855b828110156125c357815180516001600160a01b031685528681015187860152850151858501526060909301929085019060010161258b565b5091979650505050505050565b6020815281516020820152600060208301516125f760408401826001600160a01b03169052565b5060408301516101a08060608501526126146101c085018361235d565b9150606085015160808501526080850151601f19808685030160a087015261263c848361235d565b935060a087015160c087015260c087015160e087015260e0870151915061010082818801528088015192505061012082818801528088015192505061014061268e818801846001600160a01b03169052565b87015191506101606126a38782018415159052565b87015191506101806126b88782018415159052565b8701518685039091018387015290506126d1838261235d565b9695505050505050565b6001600160a01b038616815260a0602082018190526000906126ff9083018761235d565b8281036040840152612711818761235d565b60608401959095525050608001529392505050565b6020808252825182820181905260009190848201906040850190845b8181101561275e57835183529284019291840191600101612742565b50909695505050505050565b600181811c9082168061277e57607f821691505b6020821081036112cc57634e487b7160e01b600052602260045260246000fd5b601f821115611b9957600081815260208120601f850160051c810160208610156127c55750805b601f850160051c820191505b818110156127e4578281556001016127d1565b505050505050565b815167ffffffffffffffff8111156128065761280661222c565b61281a81612814845461276a565b8461279e565b602080601f83116001811461284f57600084156128375750858301515b600019600386901b1c1916600185901b1785556127e4565b600085815260208120601f198616915b8281101561287e5788860151825594840194600190910190840161285f565b508582101561289c5787850151600019600388901b60f8161c191681555b5050505050600190811b01905550565b602081526000612225602083018461235d565b634e487b7160e01b600052601160045260246000fd5b6000600182016128e7576128e76128bf565b5060010190565b80820180821115612901576129016128bf565b92915050565b60808152600061291a608083018761235d565b6020830195909552506040810192909252606090910152919050565b602080825260169082015275105d58dd1a5bdb88191bd95cc81b9bdd08195e1a5cdd60521b604082015260600190565b8082028115828204841417612901576129016128bf565b60008261299a57634e487b7160e01b600052601260045260246000fd5b500490565b81810381811115612901576129016128bf565b634e487b7160e01b600052603260045260246000fdfea2646970667358221220838432b065e0f06cf1cc894fe7e878b287d57e33ae690a0036f74b1508b15aab64736f6c63430008130033",
  "linkReferences": {},
  "deployedLinkReferences": {}
}