{
  "_format": "hh-sol-artifact-1",
  "contractName": "ProduceNFT",
  "sourceName": "contracts/ProduceNFT.sol",
  "abi": [
    {
      "inputs": [],
      "stateMutability": "nonpayable",
      "type": "constructor"
    },
    {
      "anonymous": false,
      "inputs": [
        {
          "indexed": true,
          "internalType": "address",
          "name": "owner",
          "type": "address"
        },
        {
          "indexed": true,
          "internalType": "address",
          "name": "approved",
          "type": "address"
        },
        {
          "indexed": true,
          "internalType": "uint256",
          "name": "tokenId",
          "type": "uint256"
        }
      ],
      "name": "Approval",
      "type": "event"
    },
    {
      "anonymous": false,
      "inputs": [
        {
          "indexed": true,
          "internalType": "address",
          "name": "owner",
          "type": "address"
        },
        {
          "indexed": true,
          "internalType": "address",
          "name": "operator",
          "type": "address"
        },
        {
          "indexed": false,
          "internalType": "bool",
          "name": "approved",
          "type": "bool"
        }
      ],
      "name": "ApprovalForAll",
      "type": "event"
    },
    {
      "anonymous": false,
      "inputs": [
        {
          "indexed": false,
          "internalType": "uint256",
          "name": "_fromTokenId",
          "type": "uint256"
        },
        {
          "indexed": false,
          "internalType": "uint256",
          "name": "_toTokenId",
          "type": "uint256"
        }
      ],
      "name": "BatchMetadataUpdate",
      "type": "event"
    },
    {
      "anonymous": false,
      "inputs": [
        {
          "indexed": true,
          "internalType": "uint256",
          "name": "tokenId",
          "type": "uint256"
        },
        {
          "indexed": true,
          "internalType": "uint256",
          "name": "auctionId",
          "type": "uint256"
        },
        {
          "indexed": true,
          "internalType": "address",
          "name": "farmer",
          "type": "address"
        },
        {
          "indexed": false,
          "internalType": "address",
          "name": "buyer",
          "type": "address"
        },
        {
          "indexed": false,
          "internalType": "string",
          "name": "cropName",
          "type": "string"
        }
      ],
      "name": "CertificateIssued",
      "type": "event"
    },
    {
      "anonymous": false,
      "inputs": [
        {
          "indexed": false,
          "internalType": "uint256",
          "name": "_tokenId",
          "type": "uint256"
        }
      ],
      "name": "MetadataUpdate",
      "type": "event"
    },
    {
      "anonymous": false,
      "inputs": [
        {
          "indexed": true,
          "internalType": "address",
          "name": "previousOwner",
          "type": "address"
        },
        {
          "indexed": true,
          "internalType": "address",
          "name": "newOwner",
          "type": "address"
        }
      ],
      "name": "OwnershipTransferred",
      "type": "event"
    },
    {
      "anonymous": false,
      "inputs": [
        {
          "indexed": true,
          "internalType": "address",
          "name": "from",
          "type": "address"
        },
        {
          "indexed": true,
          "internalType": "address",
          "name": "to",
          "type": "address"
        },
        {
          "indexed": true,
          "internalType": "uint256",
          "name": "tokenId",
          "type": "uint256"
        }
      ],
      "name": "Transfer",
      "type": "event"
    },
    {
      "inputs": [
        {
          "internalType": "address",
          "name": "to",
          "type": "address"
        },
        {
          "internalType": "uint256",
          "name": "tokenId",
          "type": "uint256"
        }
      ],
      "name": "approve",
      "outputs": [],
      "stateMutability": "nonpayable",
      "type": "function"
    },
    {
      "inputs": [
        {
          "internalType": "uint256",
          "name": "",
          "type": "uint256"
        }
      ],
      "name": "auctionToNFT",
      "outputs": [
        {
          "internalType": "uint256",
          "name": "",
          "type": "uint256"
        }
      ],
      "stateMutability": "view",
      "type": "function"
    },
    {
      "inputs": [
        {
          "internalType": "address",
          "name": "owner",
          "type": "address"
        }
      ],
      "name": "balanceOf",
      "outputs": [
        {
          "internalType": "uint256",
          "name": "",
          "type": "uint256"
        }
      ],
      "stateMutability": "view",
      "type": "function"
    },
    {
      "inputs": [
        {
          "internalType": "address",
          "name": "",
          "type": "address"
        },
        {
          "internalType": "uint256",
          "name": "",
          "type": "uint256"
        }
      ],
      "name": "buyerCertificates",
      "outputs": [
        {
          "internalType": "uint256",
          "name": "",
          "type": "uint256"
        }
      ],
      "stateMutability": "view",
      "type": "function"
    },
    {
      "inputs": [
        {
          "internalType": "uint256",
          "name": "",
          "type": "uint256"
        }
      ],
      "name": "certificates",
      "outputs": [
        {
          "internalType": "uint256",
          "name": "tokenId",
          "type": "uint256"
        },
        {
          "internalType": "uint256",
          "name": "auctionId",
          "type": "uint256"
        },
        {
          "internalType": "address",
          "name": "farmer",
          "type": "address"
        },
        {
          "internalType": "address",
          "name": "buyer",
          "type": "address"
        },
        {
          "internalType": "string",
          "name": "cropName",
          "type": "string"
        },
        {
          "internalType": "uint256",
          "name": "quantity",
          "type": "uint256"
        },
        {
          "internalType": "string",
          "name": "unit",
          "type": "string"
        },
        {
          "internalType": "uint256",
          "name": "salePrice",
          "type": "uint256"
        },
        {
          "internalType": "uint256",
          "name": "harvestDate",
          "type": "uint256"
        },
        {
          "internalType": "uint256",
          "name": "saleDate",
          "type": "uint256"
        },
        {
          "internalType": "bool",
          "name": "organic",
          "type": "bool"
        },
        {
          "internalType": "string",
          "name": "location",
          "type": "string"
        },
        {
          "internalType": "string",
          "name": "ipfsMetadata",
          "type": "string"
        }
      ],
      "stateMutability": "view",
      "type": "function"
    },
    {
      "inputs": [
        {
          "internalType": "address",
          "name": "",
          "type": "address"
        },
        {
          "internalType": "uint256",
          "name": "",
          "type": "uint256"
        }
      ],
      "name": "farmerCertificates",
      "outputs": [
        {
          "internalType": "uint256",
          "name": "",
          "type": "uint256"
        }
      ],
      "stateMutability": "view",
      "type": "function"
    },
    {
      "inputs": [
        {
          "internalType": "uint256",
          "name": "tokenId",
          "type": "uint256"
        }
      ],
      "name": "getApproved",
      "outputs": [
        {
          "internalType": "address",
          "name": "",
          "type": "address"
        }
      ],
      "stateMutability": "view",
      "type": "function"
    },
    {
      "inputs": [
        {
          "internalType": "uint256",
          "name": "_auctionId",
          "type": "uint256"
        }
      ],
      "name": "getAuctionCertificate",
      "outputs": [
        {
          "internalType": "uint256",
          "name": "tokenId",
          "type": "uint256"
        },
        {
          "internalType": "bool",
          "name": "exists",
          "type": "bool"
        }
      ],
      "stateMutability": "view",
      "type": "function"
    },
    {
      "inputs": [
        {
          "internalType": "address",
          "name": "_buyer",
          "type": "address"
        }
      ],
      "name": "getBuyerCertificates",
      "outputs": [
        {
          "internalType": "uint256[]",
          "name": "",
          "type": "uint256[]"
        }
      ],
      "stateMutability": "view",
      "type": "function"
    },
    {
      "inputs": [
        {
          "internalType": "uint256",
          "name": "_tokenId",
          "type": "uint256"
        }
      ],
      "name": "getCertificate",
      "outputs": [
        {
          "components": [
            {
              "internalType": "uint256",
              "name": "tokenId",
              "type": "uint256"
            },
            {
              "internalType": "uint256",
              "name": "auctionId",
              "type": "uint256"
            },
            {
              "internalType": "address",
              "name": "farmer",
              "type": "address"
            },
            {
              "internalType": "address",
              "name": "buyer",
              "type": "address"
            },
            {
              "internalType": "string",
              "name": "cropName",
              "type": "string"
            },
            {
              "internalType": "uint256",
              "name": "quantity",
              "type": "uint256"
            },
            {
              "internalType": "string",
              "name": "unit",
              "type": "string"
            },
            {
              "internalType": "uint256",
              "name": "salePrice",
              "type": "uint256"
            },
            {
              "internalType": "uint256",
              "name": "harvestDate",
              "type": "uint256"
            },
            {
              "internalType": "uint256",
              "name": "saleDate",
              "type": "uint256"
            },
            {
              "internalType": "bool",
              "name": "organic",
              "type": "bool"
            },
            {
              "internalType": "string",
              "name": "location",
              "type": "string"
            },
            {
              "internalType": "string",
              "name": "ipfsMetadata",
              "type": "string"
            }
          ],
          "internalType": "struct ProduceNFT.ProduceCertificate",
          "name": "",
          "type": "tuple"
        }
      ],
      "stateMutability": "view",
      "type": "function"
    },
    {
      "inputs": [
        {
          "internalType": "address",
          "name": "_farmer",
          "type": "address"
        }
      ],
      "name": "getFarmerCertificates",
      "outputs": [
        {
          "internalType": "uint256[]",
          "name": "",
          "type": "uint256[]"
        }
      ],
      "stateMutability": "view",
      "type": "function"
    },
    {
      "inputs": [
        {
          "internalType": "address",
          "name": "owner",
          "type": "address"
        },
        {
          "internalType": "address",
          "name": "operator",
          "type": "address"
        }
      ],
      "name": "isApprovedForAll",
      "outputs": [
        {
          "internalType": "bool",
          "name": "",
          "type": "bool"
        }
      ],
      "stateMutability": "view",
      "type": "function"
    },
    {
      "inputs": [
        {
          "internalType": "uint256",
          "name": "_auctionId",
          "type": "uint256"
        },
        {
          "internalType": "address",
          "name": "_farmer",
          "type": "address"
        },
        {
          "internalType": "address",
          "name": "_buyer",
          "type": "address"
        },
        {
          "internalType": "string",
          "name": "_cropName",
          "type": "string"
        },
        {
          "internalType": "uint256",
          "name": "_quantity",
          "type": "uint256"
        },
        {
          "internalType": "string",
          "name": "_unit",
          "type": "string"
        },
        {
          "internalType": "uint256",
          "name": "_salePrice",
          "type": "uint256"
        },
        {
          "internalType": "uint256",
          "name": "_harvestDate",
          "type": "uint256"
        },
        {
          "internalType": "bool",
          "name": "_organic",
          "type": "bool"
        },
        {
          "internalType": "string",
          "name": "_location",
          "type": "string"
        },
        {
          "internalType": "string",
          "name": "_ipfsMetadata",
          "type": "string"
        }
      ],
      "name": "issueCertificate",
      "outputs": [
        {
          "internalType": "uint256",
          "name": "",
          "type": "uint256"
        }
      ],
      "stateMutability": "nonpayable",
      "type": "function"
    },
    {
      "inputs": [],
      "name": "name",
      "outputs": [
        {
          "internalType": "string",
          "name": "",
          "type": "string"
        }
      ],
      "stateMutability": "view",
      "type": "function"
    },
    {
      "inputs": [],
      "name": "owner",
      "outputs": [
        {
          "internalType": "address",
          "name": "",
          "type": "address"
        }
      ],
      "stateMutability": "view",
      "type": "function"
    },
    {
      "inputs": [
        {
          "internalType": "uint256",
          "name": "tokenId",
          "type": "uint256"
        }
      ],
      "name": "ownerOf",
      "outputs": [
        {
          "internalType": "address",
          "name": "",
          "type": "address"
        }
      ],
      "stateMutability": "view",
      "type": "function"
    },
    {
      "inputs": [],
      "name": "renounceOwnership",
      "outputs": [],
      "stateMutability": "nonpayable",
      "type": "function"
    },
    {
      "inputs": [
        {
          "internalType": "address",
          "name": "from",
          "type": "address"
        },
        {
          "internalType": "address",
          "name": "to",
          "type": "address"
        },
        {
          "internalType": "uint256",
          "name": "tokenId",
          "type": "uint256"
        }
      ],
      "name": "safeTransferFrom",
      "outputs": [],
      "stateMutability": "nonpayable",
      "type": "function"
    },
    {
      "inputs": [
        {
          "internalType": "address",
          "name": "from",
          "type": "address"
        },
        {
          "internalType": "address",
          "name": "to",
          "type": "address"
        },
        {
          "internalType": "uint256",
          "name": "tokenId",
          "type": "uint256"
        },
        {
          "internalType": "bytes",
          "name": "data",
          "type": "bytes"
        }
      ],
      "name": "safeTransferFrom",
      "outputs": [],
      "stateMutability": "nonpayable",
      "type": "function"
    },
    {
      "inputs": [
        {
          "internalType": "address",
          "name": "operator",
          "type": "address"
        },
        {
          "internalType": "bool",
          "name": "approved",
          "type": "bool"
        }
      ],
      "name": "setApprovalForAll",
      "outputs": [],
      "stateMutability": "nonpayable",
      "type": "function"
    },
    {
      "inputs": [
        {
          "internalType": "bytes4",
          "name": "interfaceId",
          "type": "bytes4"
        }
      ],
      "name": "supportsInterface",
      "outputs": [
        {
          "internalType": "bool",
          "name": "",
          "type": "bool"
        }
      ],
      "stateMutability": "view",
      "type": "function"
    },
    {
      "inputs": [],
      "name": "symbol",
      "outputs": [
        {
          "internalType": "string",
          "name": "",
          "type": "string"
        }
      ],
      "stateMutability": "view",
      "type": "function"
    },
    {
      "inputs": [
        {
          "internalType": "uint256",
          "name": "tokenId",
          "type": "uint256"
        }
      ],
      "name": "tokenURI",
      "outputs": [
        {
          "internalType": "string",
          "name": "",
          "type": "string"
        }
      ],
      "stateMutability": "view",
      "type": "function"
    },
    {
      "inputs": [
        {
          "internalType": "address",
          "name": "from",
          "type": "address"
        },
        {
          "internalType": "address",
          "name": "to",
          "type": "address"
        },
        {
          "internalType": "uint256",
          "name": "tokenId",
          "type": "uint256"
        }
      ],
      "name": "transferFrom",
      "outputs": [],
      "stateMutability": "nonpayable",
      "type": "function"
    },
    {
      "inputs": [
        {
          "internalType": "address",
          "name": "newOwner",
          "type": "address"
        }
      ],
      "name": "transferOwnership",
      "outputs": [],
      "stateMutability": "nonpayable",
      "type": "function"
    },
    {
      "inputs": [
        {
          "internalType": "uint256",
          "name": "_tokenId",
          "type": "uint256"
        }
      ],
      "name": "verifyCertificate",
      "outputs": [
        {
          "internalType": "bool",
          "name": "exists",
          "type": "bool"
        },
        {
          "internalType": "address",
          "name": "currentOwner",
          "type": "address"
        },
        {
          "components": [
            {
              "internalType": "uint256",
              "name": "tokenId",
              "type": "uint256"
            },
            {
              "internalType": "uint256",
              "name": "auctionId",
              "type": "uint256"
            },
            {
              "internalType": "address",
              "name": "farmer",
              "type": "address"
            },
            {
              "internalType": "address",
              "name": "buyer",
              "type": "address"
            },
            {
              "internalType": "string",
              "name": "cropName",
              "type": "string"
            },
            {
              "internalType": "uint256",
              "name": "quantity",
              "type": "uint256"
            },
            {
              "internalType": "string",
              "name": "unit",
              "type": "string"
            },
            {
              "internalType": "uint256",
              "name": "salePrice",
              "type": "uint256"
            },
            {
              "internalType": "uint256",
              "name": "harvestDate",
              "type": "uint256"
            },
            {
              "internalType": "uint256",
              "name": "saleDate",
              "type": "uint256"
            },
            {
              "internalType": "bool",
              "name": "organic",
              "type": "bool"
            },
            {
              "internalType": "string",
              "name": "location",
              "type": "string"
            },
            {
              "internalType": "string",
              "name": "ipfsMetadata",
              "type": "string"
            }
          ],
          "internalType": "struct ProduceNFT.ProduceCertificate",
          "name": "certificate",
          "type": "tuple"
        }
      ],
      "stateMutability": "view",
      "type": "function"
    }
  ],
  "bytecode": "0x60806040523480156200001157600080fd5b5060405180606001604052806021815260200162002d78602191396040805180820190915260048152634641504360e01b6020820152600062000055838262000182565b50600162000064828262000182565b505050620000816200007b6200008760201b60201c565b6200008b565b6200024e565b3390565b600780546001600160a01b038381166001600160a01b0319831681179093556040519116919082907f8be0079c531659141344cd1fd0a4f28419497f9722a3daafe3b4186f6b6457e090600090a35050565b634e487b7160e01b600052604160045260246000fd5b600181811c908216806200010857607f821691505b6020821081036200012957634e487b7160e01b600052602260045260246000fd5b50919050565b601f8211156200017d57600081815260208120601f850160051c81016020861015620001585750805b601f850160051c820191505b81811015620001795782815560010162000164565b5050505b505050565b81516001600160401b038111156200019e576200019e620000dd565b620001b681620001af8454620000f3565b846200012f565b602080601f831160018114620001ee5760008415620001d55750858301515b600019600386901b1c1916600185901b17855562000179565b600085815260208120601f198616915b828110156200021f57888601518255948401946001909101908401620001fe565b50858210156200023e5787850151600019600388901b60f8161c191681555b5050505050600190811b01905550565b612b1a806200025e6000396000f3fe608060405234801561001057600080fd5b506004361061018e5760003560e01c80636d2d6897116100de578063a22cb46511610097578063da856a0a11610071578063da856a0a146103d1578063e985e9c5146103e4578063ecbc05e514610420578063f2fde38b1461043357600080fd5b8063a22cb46514610398578063b88d4fde146103ab578063c87b56dd146103be57600080fd5b80636d2d68971461031857806370a082311461032b578063715018a61461033e5780637b965d3f146103465780638da5cb5b1461037f57806395d89b411461039057600080fd5b806342842e0e1161014b5780635584ec7b116101255780635584ec7b146102a65780636352211e146102b9578063663b3e22146102cc5780636664013f146102f857600080fd5b806342842e0e14610245578063438c09f21461025857806351640fee1461028657600080fd5b806301ffc9a71461019357806306fdde03146101bb578063081812fc146101d0578063095ea7b3146101fb5780631692a9421461021057806323b872dd14610232575b600080fd5b6101a66101a13660046121f1565b610446565b60405190151581526020015b60405180910390f35b6101c3610457565b6040516101b2919061225e565b6101e36101de366004612271565b6104e9565b6040516001600160a01b0390911681526020016101b2565b61020e6102093660046122a6565b610510565b005b61022361021e366004612271565b61062a565b6040516101b2939291906123cd565b61020e610240366004612402565b610935565b61020e610253366004612402565b610966565b610278610266366004612271565b600a6020526000908152604090205481565b6040519081526020016101b2565b610299610294366004612271565b610981565b6040516101b2919061243e565b6102786102b436600461250d565b610cbf565b6101e36102c7366004612271565b611094565b6102df6102da366004612271565b6110f4565b6040516101b29d9c9b9a9998979695949392919061261d565b61030b6103063660046126dd565b61138a565b6040516101b291906126f8565b61030b6103263660046126dd565b6113f6565b6102786103393660046126dd565b611460565b61020e6114e6565b61036a610354366004612271565b6000908152600a60205260409020549081151590565b604080519283529015156020830152016101b2565b6007546001600160a01b03166101e3565b6101c36114fa565b61020e6103a636600461273c565b611509565b61020e6103b936600461276f565b611518565b6101c36103cc366004612271565b611550565b6102786103df3660046122a6565b61155b565b6101a66103f23660046127eb565b6001600160a01b03918216600090815260056020908152604080832093909416825291909152205460ff1690565b61027861042e3660046122a6565b61158c565b61020e6104413660046126dd565b6115a8565b600061045182611621565b92915050565b60606000805461046690612815565b80601f016020809104026020016040519081016040528092919081815260200182805461049290612815565b80156104df5780601f106104b4576101008083540402835291602001916104df565b820191906000526020600020905b8154815290600101906020018083116104c257829003601f168201915b5050505050905090565b60006104f482611646565b506000908152600460205260409020546001600160a01b031690565b600061051b82611094565b9050806001600160a01b0316836001600160a01b03160361058d5760405162461bcd60e51b815260206004820152602160248201527f4552433732313a20617070726f76616c20746f2063757272656e74206f776e656044820152603960f91b60648201526084015b60405180910390fd5b336001600160a01b03821614806105a957506105a981336103f2565b61061b5760405162461bcd60e51b815260206004820152603d60248201527f4552433732313a20617070726f76652063616c6c6572206973206e6f7420746f60448201527f6b656e206f776e6572206f7220617070726f76656420666f7220616c6c0000006064820152608401610584565b6106258383611696565b505050565b60008061063561215f565b61063e84611704565b9250821561092e5761064f84611094565b60008581526009602090815260409182902082516101a0810184528154815260018201549281019290925260028101546001600160a01b03908116938301939093526003810154909216606082015260048201805493955090926080840191906106b890612815565b80601f01602080910402602001604051908101604052809291908181526020018280546106e490612815565b80156107315780601f1061070657610100808354040283529160200191610731565b820191906000526020600020905b81548152906001019060200180831161071457829003601f168201915b505050505081526020016005820154815260200160068201805461075490612815565b80601f016020809104026020016040519081016040528092919081815260200182805461078090612815565b80156107cd5780601f106107a2576101008083540402835291602001916107cd565b820191906000526020600020905b8154815290600101906020018083116107b057829003601f168201915b5050509183525050600782015460208201526008820154604082015260098201546060820152600a82015460ff1615156080820152600b8201805460a09092019161081790612815565b80601f016020809104026020016040519081016040528092919081815260200182805461084390612815565b80156108905780601f1061086557610100808354040283529160200191610890565b820191906000526020600020905b81548152906001019060200180831161087357829003601f168201915b50505050508152602001600c820180546108a990612815565b80601f01602080910402602001604051908101604052809291908181526020018280546108d590612815565b80156109225780601f106108f757610100808354040283529160200191610922565b820191906000526020600020905b81548152906001019060200180831161090557829003601f168201915b50505050508152505090505b9193909250565b61093f3382611721565b61095b5760405162461bcd60e51b81526004016105849061284f565b6106258383836117a0565b61062583838360405180602001604052806000815250611518565b61098961215f565b61099282611704565b6109de5760405162461bcd60e51b815260206004820152601a60248201527f436572746966696361746520646f6573206e6f742065786973740000000000006044820152606401610584565b60008281526009602090815260409182902082516101a0810184528154815260018201549281019290925260028101546001600160a01b039081169383019390935260038101549092166060820152600482018054919291608084019190610a4590612815565b80601f0160208091040260200160405190810160405280929190818152602001828054610a7190612815565b8015610abe5780601f10610a9357610100808354040283529160200191610abe565b820191906000526020600020905b815481529060010190602001808311610aa157829003601f168201915b5050505050815260200160058201548152602001600682018054610ae190612815565b80601f0160208091040260200160405190810160405280929190818152602001828054610b0d90612815565b8015610b5a5780601f10610b2f57610100808354040283529160200191610b5a565b820191906000526020600020905b815481529060010190602001808311610b3d57829003601f168201915b5050509183525050600782015460208201526008820154604082015260098201546060820152600a82015460ff1615156080820152600b8201805460a090920191610ba490612815565b80601f0160208091040260200160405190810160405280929190818152602001828054610bd090612815565b8015610c1d5780601f10610bf257610100808354040283529160200191610c1d565b820191906000526020600020905b815481529060010190602001808311610c0057829003601f168201915b50505050508152602001600c82018054610c3690612815565b80601f0160208091040260200160405190810160405280929190818152602001828054610c6290612815565b8015610caf5780601f10610c8457610100808354040283529160200191610caf565b820191906000526020600020905b815481529060010190602001808311610c9257829003601f168201915b5050505050815250509050919050565b6000610cc9611904565b6001600160a01b038b16610d185760405162461bcd60e51b8152602060048201526016602482015275496e76616c6964206661726d6572206164647265737360501b6044820152606401610584565b6001600160a01b038a16610d665760405162461bcd60e51b8152602060048201526015602482015274496e76616c6964206275796572206164647265737360581b6044820152606401610584565b60008c8152600a602052604090205415610dd65760405162461bcd60e51b815260206004820152602b60248201527f436572746966696361746520616c72656164792069737375656420666f72207460448201526a3434b99030bab1ba34b7b760a91b6064820152608401610584565b610de4600880546001019055565b6000610def60085490565b9050610dfb8b8261195e565b610e058184611978565b604051806101a001604052808281526020018e81526020018d6001600160a01b031681526020018c6001600160a01b031681526020018b81526020018a815260200189815260200188815260200187815260200142815260200186151581526020018581526020018481525060096000838152602001908152602001600020600082015181600001556020820151816001015560408201518160020160006101000a8154816001600160a01b0302191690836001600160a01b0316021790555060608201518160030160006101000a8154816001600160a01b0302191690836001600160a01b031602179055506080820151816004019081610f0791906128ea565b5060a0820151600582015560c08201516006820190610f2690826128ea565b5060e0820151600782015561010082015160088201556101208201516009820155610140820151600a8201805460ff1916911515919091179055610160820151600b820190610f7590826128ea565b50610180820151600c820190610f8b90826128ea565b5090505080600a60008f815260200190815260200160002081905550600b60008d6001600160a01b03166001600160a01b03168152602001908152602001600020819080600181540180825580915050600190039060005260206000200160009091909190915055600c60008c6001600160a01b03166001600160a01b031681526020019081526020016000208190806001815401808255809150506001900390600052602060002001600090919091909150558b6001600160a01b03168d827f09f326f91721cc6658b0fcc08d94740589a61b5f12f061d0f6b5bd208b813c318e8e60405161107c9291906129aa565b60405180910390a49c9b505050505050505050505050565b6000818152600260205260408120546001600160a01b0316806104515760405162461bcd60e51b8152602060048201526018602482015277115490cdcc8c4e881a5b9d985b1a59081d1bdad95b88125160421b6044820152606401610584565b60096020526000908152604090208054600182015460028301546003840154600485018054949593946001600160a01b0393841694929093169261113790612815565b80601f016020809104026020016040519081016040528092919081815260200182805461116390612815565b80156111b05780601f10611185576101008083540402835291602001916111b0565b820191906000526020600020905b81548152906001019060200180831161119357829003601f168201915b5050505050908060050154908060060180546111cb90612815565b80601f01602080910402602001604051908101604052809291908181526020018280546111f790612815565b80156112445780601f1061121957610100808354040283529160200191611244565b820191906000526020600020905b81548152906001019060200180831161122757829003601f168201915b505050600784015460088501546009860154600a870154600b880180549798949793965091945060ff16929161127990612815565b80601f01602080910402602001604051908101604052809291908181526020018280546112a590612815565b80156112f25780601f106112c7576101008083540402835291602001916112f2565b820191906000526020600020905b8154815290600101906020018083116112d557829003601f168201915b50505050509080600c01805461130790612815565b80601f016020809104026020016040519081016040528092919081815260200182805461133390612815565b80156113805780601f1061135557610100808354040283529160200191611380565b820191906000526020600020905b81548152906001019060200180831161136357829003601f168201915b505050505090508d565b6001600160a01b0381166000908152600b60209081526040918290208054835181840281018401909452808452606093928301828280156113ea57602002820191906000526020600020905b8154815260200190600101908083116113d6575b50505050509050919050565b6001600160a01b0381166000908152600c60209081526040918290208054835181840281018401909452808452606093928301828280156113ea57602002820191906000526020600020908154815260200190600101908083116113d65750505050509050919050565b60006001600160a01b0382166114ca5760405162461bcd60e51b815260206004820152602960248201527f4552433732313a2061646472657373207a65726f206973206e6f7420612076616044820152683634b21037bbb732b960b91b6064820152608401610584565b506001600160a01b031660009081526003602052604090205490565b6114ee611904565b6114f86000611a34565b565b60606001805461046690612815565b611514338383611a86565b5050565b6115223383611721565b61153e5760405162461bcd60e51b81526004016105849061284f565b61154a84848484611b54565b50505050565b606061045182611b87565b600c602052816000526040600020818154811061157757600080fd5b90600052602060002001600091509150505481565b600b602052816000526040600020818154811061157757600080fd5b6115b0611904565b6001600160a01b0381166116155760405162461bcd60e51b815260206004820152602660248201527f4f776e61626c653a206e6577206f776e657220697320746865207a65726f206160448201526564647265737360d01b6064820152608401610584565b61161e81611a34565b50565b60006001600160e01b03198216632483248360e11b1480610451575061045182611c8f565b61164f81611704565b61161e5760405162461bcd60e51b8152602060048201526018602482015277115490cdcc8c4e881a5b9d985b1a59081d1bdad95b88125160421b6044820152606401610584565b600081815260046020526040902080546001600160a01b0319166001600160a01b03841690811790915581906116cb82611094565b6001600160a01b03167f8c5be1e5ebec7d5bd14f71427d1e84f3dd0314c0f7b2291e5b200ac8c7c3b92560405160405180910390a45050565b6000908152600260205260409020546001600160a01b0316151590565b60008061172d83611094565b9050806001600160a01b0316846001600160a01b0316148061177457506001600160a01b0380821660009081526005602090815260408083209388168352929052205460ff165b806117985750836001600160a01b031661178d846104e9565b6001600160a01b0316145b949350505050565b826001600160a01b03166117b382611094565b6001600160a01b0316146117d95760405162461bcd60e51b8152600401610584906129ce565b6001600160a01b03821661183b5760405162461bcd60e51b8152602060048201526024808201527f4552433732313a207472616e7366657220746f20746865207a65726f206164646044820152637265737360e01b6064820152608401610584565b826001600160a01b031661184e82611094565b6001600160a01b0316146118745760405162461bcd60e51b8152600401610584906129ce565b600081815260046020908152604080832080546001600160a01b03199081169091556001600160a01b0387811680865260038552838620805460001901905590871680865283862080546001019055868652600290945282852080549092168417909155905184937fddf252ad1be2c89b69c2b068fc378daa952ba7f163c4a11628f55a4df523b3ef91a4505050565b6007546001600160a01b031633146114f85760405162461bcd60e51b815260206004820181905260248201527f4f776e61626c653a2063616c6c6572206973206e6f7420746865206f776e65726044820152606401610584565b611514828260405180602001604052806000815250611cdf565b61198182611704565b6119e45760405162461bcd60e51b815260206004820152602e60248201527f45524337323155524953746f726167653a2055524920736574206f66206e6f6e60448201526d32bc34b9ba32b73a103a37b5b2b760911b6064820152608401610584565b60008281526006602052604090206119fc82826128ea565b506040518281527ff8e1a15aba9398e019f0b49df1a4fde98ee17ae345cb5f6b5e2c27f5033e8ce79060200160405180910390a15050565b600780546001600160a01b038381166001600160a01b0319831681179093556040519116919082907f8be0079c531659141344cd1fd0a4f28419497f9722a3daafe3b4186f6b6457e090600090a35050565b816001600160a01b0316836001600160a01b031603611ae75760405162461bcd60e51b815260206004820152601960248201527f4552433732313a20617070726f766520746f2063616c6c6572000000000000006044820152606401610584565b6001600160a01b03838116600081815260056020908152604080832094871680845294825291829020805460ff191686151590811790915591519182527f17307eab39ab6107e8899845ad3d59bd9653f200f220920489ca2b5937696c31910160405180910390a3505050565b611b5f8484846117a0565b611b6b84848484611d12565b61154a5760405162461bcd60e51b815260040161058490612a13565b6060611b9282611646565b60008281526006602052604081208054611bab90612815565b80601f0160208091040260200160405190810160405280929190818152602001828054611bd790612815565b8015611c245780601f10611bf957610100808354040283529160200191611c24565b820191906000526020600020905b815481529060010190602001808311611c0757829003601f168201915b505050505090506000611c4260408051602081019091526000815290565b90508051600003611c54575092915050565b815115611c86578082604051602001611c6e929190612a65565b60405160208183030381529060405292505050919050565b61179884611e13565b60006001600160e01b031982166380ac58cd60e01b1480611cc057506001600160e01b03198216635b5e139f60e01b145b8061045157506301ffc9a760e01b6001600160e01b0319831614610451565b611ce98383611e87565b611cf66000848484611d12565b6106255760405162461bcd60e51b815260040161058490612a13565b60006001600160a01b0384163b15611e0857604051630a85bd0160e11b81526001600160a01b0385169063150b7a0290611d56903390899088908890600401612a94565b6020604051808303816000875af1925050508015611d91575060408051601f3d908101601f19168201909252611d8e91810190612ac7565b60015b611dee573d808015611dbf576040519150601f19603f3d011682016040523d82523d6000602084013e611dc4565b606091505b508051600003611de65760405162461bcd60e51b815260040161058490612a13565b805181602001fd5b6001600160e01b031916630a85bd0160e11b149050611798565b506001949350505050565b6060611e1e82611646565b6000611e3560408051602081019091526000815290565b90506000815111611e555760405180602001604052806000815250611e80565b80611e5f84611ff4565b604051602001611e70929190612a65565b6040516020818303038152906040525b9392505050565b6001600160a01b038216611edd5760405162461bcd60e51b815260206004820181905260248201527f4552433732313a206d696e7420746f20746865207a65726f20616464726573736044820152606401610584565b611ee681611704565b15611f335760405162461bcd60e51b815260206004820152601c60248201527f4552433732313a20746f6b656e20616c7265616479206d696e746564000000006044820152606401610584565b611f3c81611704565b15611f895760405162461bcd60e51b815260206004820152601c60248201527f4552433732313a20746f6b656e20616c7265616479206d696e746564000000006044820152606401610584565b6001600160a01b038216600081815260036020908152604080832080546001019055848352600290915280822080546001600160a01b0319168417905551839291907fddf252ad1be2c89b69c2b068fc378daa952ba7f163c4a11628f55a4df523b3ef908290a45050565b6060600061200183612087565b600101905060008167ffffffffffffffff81111561202157612021612451565b6040519080825280601f01601f19166020018201604052801561204b576020820181803683370190505b5090508181016020015b600019016f181899199a1a9b1b9c1cb0b131b232b360811b600a86061a8153600a850494508461205557509392505050565b60008072184f03e93ff9f4daa797ed6e38ed64bf6a1f0160401b83106120c65772184f03e93ff9f4daa797ed6e38ed64bf6a1f0160401b830492506040015b6d04ee2d6d415b85acef810000000083106120f2576d04ee2d6d415b85acef8100000000830492506020015b662386f26fc10000831061211057662386f26fc10000830492506010015b6305f5e1008310612128576305f5e100830492506008015b612710831061213c57612710830492506004015b6064831061214e576064830492506002015b600a83106104515760010192915050565b604051806101a00160405280600081526020016000815260200160006001600160a01b0316815260200160006001600160a01b0316815260200160608152602001600081526020016060815260200160008152602001600081526020016000815260200160001515815260200160608152602001606081525090565b6001600160e01b03198116811461161e57600080fd5b60006020828403121561220357600080fd5b8135611e80816121db565b60005b83811015612229578181015183820152602001612211565b50506000910152565b6000815180845261224a81602086016020860161220e565b601f01601f19169290920160200192915050565b602081526000611e806020830184612232565b60006020828403121561228357600080fd5b5035919050565b80356001600160a01b03811681146122a157600080fd5b919050565b600080604083850312156122b957600080fd5b6122c28361228a565b946020939093013593505050565b60006101a0825184526020830151602085015260408301516122fd60408601826001600160a01b03169052565b50606083015161231860608601826001600160a01b03169052565b50608083015181608086015261233082860182612232565b91505060a083015160a085015260c083015184820360c08601526123548282612232565b91505060e083015160e08501526101008084015181860152506101208084015181860152506101408084015161238d8287018215159052565b505061016080840151858303828701526123a78382612232565b9250505061018080840151858303828701526123c38382612232565b9695505050505050565b83151581526001600160a01b03831660208201526060604082018190526000906123f9908301846122d0565b95945050505050565b60008060006060848603121561241757600080fd5b6124208461228a565b925061242e6020850161228a565b9150604084013590509250925092565b602081526000611e8060208301846122d0565b634e487b7160e01b600052604160045260246000fd5b600067ffffffffffffffff8084111561248257612482612451565b604051601f8501601f19908116603f011681019082821181831017156124aa576124aa612451565b816040528093508581528686860111156124c357600080fd5b858560208301376000602087830101525050509392505050565b600082601f8301126124ee57600080fd5b611e8083833560208501612467565b803580151581146122a157600080fd5b60008060008060008060008060008060006101608c8e03121561252f57600080fd5b8b359a5061253f60208d0161228a565b995061254d60408d0161228a565b985067ffffffffffffffff8060608e0135111561256957600080fd5b6125798e60608f01358f016124dd565b985060808d013597508060a08e0135111561259357600080fd5b6125a38e60a08f01358f016124dd565b965060c08d0135955060e08d013594506125c06101008e016124fd565b9350806101208e013511156125d457600080fd5b6125e58e6101208f01358f016124dd565b9250806101408e013511156125f957600080fd5b5061260b8d6101408e01358e016124dd565b90509295989b509295989b9093969950565b60006101a08f83528e6020840152612640604084018f6001600160a01b03169052565b6001600160a01b038d1660608401528060808401526126618184018d612232565b90508a60a084015282810360c084015261267b818b612232565b90508860e084015287610100840152866101208401526126a061014084018715159052565b8281036101608401526126b38186612232565b90508281036101808401526126c88185612232565b9150509e9d5050505050505050505050505050565b6000602082840312156126ef57600080fd5b611e808261228a565b6020808252825182820181905260009190848201906040850190845b8181101561273057835183529284019291840191600101612714565b50909695505050505050565b6000806040838503121561274f57600080fd5b6127588361228a565b9150612766602084016124fd565b90509250929050565b6000806000806080858703121561278557600080fd5b61278e8561228a565b935061279c6020860161228a565b925060408501359150606085013567ffffffffffffffff8111156127bf57600080fd5b8501601f810187136127d057600080fd5b6127df87823560208401612467565b91505092959194509250565b600080604083850312156127fe57600080fd5b6128078361228a565b91506127666020840161228a565b600181811c9082168061282957607f821691505b60208210810361284957634e487b7160e01b600052602260045260246000fd5b50919050565b6020808252602d908201527f4552433732313a2063616c6c6572206973206e6f7420746f6b656e206f776e6560408201526c1c881bdc88185c1c1c9bdd9959609a1b606082015260800190565b601f82111561062557600081815260208120601f850160051c810160208610156128c35750805b601f850160051c820191505b818110156128e2578281556001016128cf565b505050505050565b815167ffffffffffffffff81111561290457612904612451565b612918816129128454612815565b8461289c565b602080601f83116001811461294d57600084156129355750858301515b600019600386901b1c1916600185901b1785556128e2565b600085815260208120601f198616915b8281101561297c5788860151825594840194600190910190840161295d565b508582101561299a5787850151600019600388901b60f8161c191681555b5050505050600190811b01905550565b6001600160a01b038316815260406020820181905260009061179890830184612232565b60208082526025908201527f4552433732313a207472616e736665722066726f6d20696e636f72726563742060408201526437bbb732b960d91b606082015260800190565b60208082526032908201527f4552433732313a207472616e7366657220746f206e6f6e20455243373231526560408201527131b2b4bb32b91034b6b83632b6b2b73a32b960711b606082015260800190565b60008351612a7781846020880161220e565b835190830190612a8b81836020880161220e565b01949350505050565b6001600160a01b03858116825284166020820152604081018390526080606082018190526000906123c390830184612232565b600060208284031215612ad957600080fd5b8151611e80816121db56fea26469706673582212206f76ca7432f0180aeef04633b56e25e04c6b1e9b2bb624d244f36044ce791e5b64736f6c634300081300334661726d657241756374696f6e2050726f64756365204365727469666963617465",
  "linkReferences": {},
  "deployedLinkReferences": {}
}